:100000000C943F000C945C000C945C000C945C001D
:100010000C945C000C945C000C945C000C945C00F0
:100020000C945C000C94E6030C945C000C945C0053
:100030000C945C000C945C000C945C000C945C00D0
:100040000C945C000C945C000C945C000C945C00C0
:100050000C945C000C945C000C945C000C945C00B0
:100060000C9495040C9438050C945C000C94670473
:100070000C9441040C945C000C945C00F005112479
:100080001FBECFEFCDBFDFE3DEBF2DE3A0E0BCE3BB
:1000900001C01D92A731B207E1F710E0CFE3D0E035
:1000A00004C02197FE010E942B0ACE33D107C9F765
:1000B0000E9424060C94400A0C94000090914C3C41
:1000C00080914B3C2FEF3FEF981748F4E92FF0E079
:1000D000E55DF34C208130E09F5F90934C3CC9017B
:1000E000089590914C3C80914B3C2FEF3FEF981737
:1000F00048F4E92FF0E0E55DF34C208130E09F5FAC
:1001000090934C3CC9010895FB01A485B585ED9100
:10011000FC9111970190F081E02D682FCD01099598
:1001200090E080E00895FC01508D418D252F30E056
:10013000842F90E0821B930B541710F0CF960895F4
:1001400001970895FC0196898789981761F0A7891E
:10015000AE0FBF2FB11D5B968C9197899F5F9F73E8
:10016000978B90E008958FEF9FEF0895FC0196899B
:100170008789981731F08789E80FF11D838D90E00A
:1001800008958FEF9FEF0895FC0196892789892FA5
:1001900090E0805C9F4F821B91098F73992708958F
:1001A000CF93DF93EC01E881F9810680F781E02DA0
:1001B0000995EC85FD8586818F738683EC85FD85A9
:1001C00085818F7585838F898E8B1D8ADF91CF9175
:1001D0000895CF93DF93FC01908D818DC485D585E3
:1001E000981306C08D818F7D8D83DF91CF91089507
:1001F000A18DAE0FBF2FB11DA55ABF4F9C91818D10
:100200008F5F8F73818F80E48C83A485B585129670
:100210009C93908D818D9813E8CF0484F585E02D13
:1002200085818F7D8583E1CFDC011C96ED91FC916A
:100230000FB607FE07C0258125FF04C020911101DC
:10024000222321F0248125FD0C94E90008950F93C9
:100250001F93CF93DF93EC0181E08D8B988D898D77
:10026000981311C0EC85FD85848185FF0CC080E466
:100270008483EC85FD85628381E090E0DF91CF91FE
:100280001F910F910895062F188D1F5F1F73898D81
:10029000811304C0CE010E941401F9CFE88DEC0F48
:1002A000FD2FF11DE55AFF4F0083188FEC85FD856A
:1002B000858180628583E0CFCF93DF93EC018D89C8
:1002C000882361F0EC85FD85858185FD03C08481EF
:1002D00086FD04C0CE010E941401F4CFDF91CF91BE
:1002E00008950F931F938FB7F8946091210A90910E
:1002F0000B0A2091273C3091283C4091293C509199
:100300002A3C8FBFEEEFE61B91FF06C0E43020F4DD
:100310002F5F3F4F4F4F5F4FACEFB3E00E94180A83
:10032000AB01BC018E2F90E0B0E0A0E022E0880F8E
:10033000991FAA1FBB1F2A95D1F78A019B01080F9D
:10034000191F2A1F3B1FC901B8011F910F91089562
:10035000CF92DF92EF92FF92CF93DF936B017C01FC
:100360000E947101EB010E9471016C1B7D0B683EC4
:100370007340A0F0C114D104E104F10439F4DF9119
:10038000CF91FF90EF90DF90CF90089581E0C81A51
:10039000D108E108F108C851DC4FE5CFC114D10400
:1003A000E104F10401F7EBCFAF92BF92CF92DF925D
:1003B000EF92FF920F931F93CF93DF936C017B011A
:1003C0008B01040F151FEB015E01AE18BF08C017AB
:1003D000D10759F06991D601ED91FC910190F0811E
:1003E000E02DC6010995892B79F7C501DF91CF91E1
:1003F0001F910F91FF90EF90DF90CF90BF90AF9043
:10040000089581E00895E0E1F8E091859066918794
:1004100092E09093123C8093023C1092013C08952C
:1004200081E08093013C1092023C90911B0891FF67
:100430000EC010920C3CF0E0E0E0099580930B3C7C
:1004400085E08093123C83E080931A08089510920F
:100450000D3C80930A3C86E0F4CF0F939091123CC0
:10046000913009F051C030910F3C311153C090933D
:100470000F3C10920E3C6093043C7093053C4093FB
:10048000063C2093083C1092103C1092113C0093C3
:10049000073C880F8093033C93E024E08091063C66
:1004A000882331F09093123C8091033C8E7F09C0E9
:1004B0008091083C882341F02093123C8091033CBA
:1004C00081608093170808C08091063C811104C0A8
:1004D0008091083C882331F380910E3C8823E1F31E
:1004E00080910E3C8330D1F28091083C882321F02A
:1004F0008091113C0F91089580910E3C823051F013
:10050000853021F0813021F480E0F4CF83E0F2CF18
:1005100084E0F0CF81E0EECF0F93082F20E04091F0
:100520006F3C6EE47CE380916E3C0E942D02109241
:100530004D3C10926F3C0F9108950895E0914C3C12
:1005400080914B3CE81730F4F0E0E55DF34C80819E
:1005500090E008958FEF9FEF089580914B3C90912C
:100560004C3C891B990B0895CF92DF92EF92FF923A
:100570000F931F93CF93DF937C018A01EB016B01F3
:10058000C40ED51ECC15DD0551F06991D701ED9152
:10059000FC910190F081E02DC7010995F3CFC801CE
:1005A000DF91CF911F910F91FF90EF90DF90CF904F
:1005B000089520916F3C203240F021E030E0FC01B2
:1005C0002283338390E080E0089580914D3CE82FB2
:1005D000F0E0E25BF34C60838F5F80934D3C80934F
:1005E0006F3C81E090E00895682F8BE09DE30C94D0
:1005F000D90290E080E00895DC01ED91FC91008843
:10060000F189E02D23E030E00994CF93DF93CDB75B
:10061000DEB72E97CDBFDEBF84E890E089879A874A
:100620001B861C8682E08C8380E79CE38D879E87F7
:10063000AE01495E5F4F62EF74E9CE0101960E9400
:1006400047072E96CDBFDEBFDF91CF9108958F92E1
:100650009F92AF92BF92DF92EF92FF920F931F9300
:10066000CF93DF93EC014A015B01E22E8D89882351
:1006700039F0E881F9810288F389E02DCE010995EE
:100680000C8910E0F12C811430E6930639E0A306C2
:10069000B10430F0B694A7949794879442E0F42E76
:1006A0001D8AD090231160E070E281EA97E0A501F5
:1006B00094010E94F609AD2DDD0CBB0BBC5F0E94BE
:1006C000230ADC01CB012BE0B595A795979587957B
:1006D0002A95D1F72FB7F894EC85FD85009761E056
:1006E000A607B10524F08FEF9FEFA0E0B0E0808770
:1006F0009187EC85FD85E782EC85FD858681897F84
:10070000806C8F298683EC85FD8585818068858353
:10071000909101028B8980958923A801440F551F70
:10072000FA01E00FF11FEC0FFD1F9089892B8093D8
:1007300001028685863128F590E0FC01E055FB46F4
:1007400030813F3FF1F0FC01E656FB46E081A0E23C
:10075000EA9FF0011124FC5F8C579B46DC016C91F1
:10076000B0E0A0E06F3F29F0CF014096DC01A60F7A
:10077000B11D9FB7F89432838C9188608C93358338
:100780009FBF040F151FC00FD11F8F85863188F4BE
:1007900090E0FC01E055FB4630813F3F51F086562A
:1007A0009B46DC01EC91B0E2EB9FF0011124FC5F71
:1007B00031832FBFDF91CF911F910F91FF90EF9069
:1007C000DF90BF90AF909F908F9008951F920F92EF
:1007D0000FB60F9211242F933F934F935F936F9314
:1007E0008F939F93AF93BF938091233C9091243C30
:1007F000A091253CB091263C4091213C5091223C57
:100800009A012C5E3F4F283E63E0360798F501962B
:10081000A11DB11D2093213C3093223C8093233CA9
:100820009093243CA093253CB093263C8091273C98
:100830009091283CA091293CB0912A3C0196A11DA1
:10084000B11D8093273C9093283CA093293CB09302
:100850002A3C82E080930B0ABF91AF919F918F91C8
:100860006F915F914F913F912F910F900FBE0F901D
:100870001F9018959A01245D33400296A11DB11D69
:10088000C9CF1F920F920FB60F9211242F933F934F
:100890004F935F936F937F938F939F93AF93BF9388
:1008A000EF93FF9380E79CE30E94E900FF91EF91B3
:1008B000BF91AF919F918F917F916F915F914F9178
:1008C0003F912F910F900FBE0F901F9018951F9280
:1008D0000F920FB60F9211242F938F939F93EF9344
:1008E000FF93E0917C3CF0917D3C818181FD1BC0B8
:1008F00090818091863C8F5F8F732091873C821717
:1009000041F0E091863CF0E0E059F34C938F809306
:10091000863CFF91EF919F918F912F910F900FBE89
:100920000F901F9018958081F4CF1F920F920FB6F1
:100930000F9211242F933F934F935F936F937F9365
:100940008F939F93AF93BF93CF93EF93FF93C091F8
:100950001B08C2FF0AC010920D3C10920C3C109272
:100960000B3C84E00E94030212C0C6FF2DC08091A0
:100970000A3C813041F480910D3C90E0F0E0E0E0F1
:10098000099510920A3CC0FF14C00E941002FF910A
:10099000EF91CF91BF91AF919F918F917F916F9187
:1009A0005F914F913F912F910F900FBE0F901F902D
:1009B000189580E480931B0881E00E9403028091D7
:1009C0001B0885FFE4CFE1CFC7FF50C0C3FF08C0BD
:1009D00010920D3C10920C3C10920B3C83E0C2CF65
:1009E0008091190880668093190880911B0881FF07
:1009F00026C080910C3C882349F080911B0884FF1D
:100A000005C082E080931A0881E0ACCF90910C3C45
:100A100080910B3C981778F4E0910C3CF0E08081D9
:100A200080931D0880910C3C8F5F80930C3C83E089
:100A300080931A08ACCF82E080931A0893CF9091EC
:100A40000D3C8091093C981760F480911D08E0915D
:100A50000D3CF0E0808380910D3C8F5F80930D3CD6
:100A6000E6CF86E080931A0882E07CCF85E07ACFDB
:100A70001F920F920FB60F9211242F933F938F93D3
:100A80009F93EF93FF9380911508982F9C70C9F066
:100A90008091150894E082FF93E090930E3C809340
:100AA000150881E08093123C10920F3CFF91EF916A
:100AB0009F918F913F912F910F900FBE0F901F909C
:100AC000189586FF4CC02091063C9091083C80917F
:100AD000150884FF10C08091073C882351F083E003
:100AE0008093140885E080930E3C10920F3C81E0C7
:100AF00031C081E0F5CF8091103C821790F4E091F5
:100B0000103C8091043C9091053CE80FF92FF11DB9
:100B10008081809318088091103C8F5F8093103CF7
:100B2000C5CF8091113C891748F484E08093123C32
:100B30008091033C816080931708B8CF8091073C77
:100B4000882359F083E08093140881E080930E3C61
:100B500010920F3C8093123CA9CF81E0F4CF87FF25
:100B60003DC09091113C8091083C9817D8F4809139
:100B70001808E091113C2091133C3091143CE20F95
:100B8000F32FF11D80838091113C8F5F8093113C86
:100B90009091083C8091113C8917C0F482E08093C9
:100BA000140884CF8091073C882371F087E08093FC
:100BB000140882E080930E3C10920F3C81E08093F9
:100BC000123C1092083C72CF85E0F1CF8091073C37
:100BD000882311F087E0B7CF85E0B5CF86E083CFDB
:100BE000E0E7FCE31282138288EE93E0A0E0B0E03D
:100BF00084839583A683B7832AEC34E920833183E9
:100C000020E038E02487358728E0268729E02787F9
:100C1000108A23E1218B22E1228B21E0238B148A8D
:100C2000158A168A178A108E118E2CE1228FEBE01E
:100C3000FDE31282138284839583A683B78384EEB7
:100C400094E980839183089588ED90E084BF909328
:100C5000610083E5809302068AE08093050680E2C6
:100C60008093030611E0109300061093030A8EEFA1
:100C70008093260A8093270A8BE08093000A809154
:100C80000A0A826080930A0A789440E855E260E09C
:100C900070E080E79CE30E94FC0210924C3C1092B2
:100CA0004B3C10924D3C10926F3C8091123C811154
:100CB00029C083E0809326041093123C1092113CCB
:100CC0001092103C10920F3C10920E3C8091130831
:100CD000282F217080FD10921308909110089D7F9D
:100CE000909310089BE490931608222329F0809398
:100CF000130881E08093150881EC8093130881E04C
:100D00008093150864E170E080E090E00E94A80103
:100D100088E680936E3C8BE690E00E94F40290E0BF
:100D200080E00E94F40281E00E948C0264E170E0A5
:100D300080E090E00E94A80118E68BE2882E8CE308
:100D4000982E92EF292E94E9392E10936E3C109232
:100D50004D3C10926F3C8BE390E00E94F40280E0E7
:100D60000E948C028092133C9092143C01E026E099
:100D700040E070E060E088E60E942D0210924C3C5A
:100D800080934B3C0E947100082F0E947100A12C9F
:100D90008A29902B8093153C9093163C0E947100F9
:100DA000082F0E947100C12C8C29902B8093173C36
:100DB0009093183C0E947100082F0E947100E12C52
:100DC0008E29902B8093193C90931A3C10924D3CA5
:100DD00010926F3C83E490E00E94F40280E00E9455
:100DE0008C0201E026E040E070E060E088E60E94CE
:100DF0002D0210924C3C80934B3C0E947100082FB6
:100E00000E94710020E0822B902B80931B3C9093DA
:100E10001C3C0E947100082F0E947100612C8629E1
:100E2000902B80931D3C90931E3C0E947100082FD4
:100E30000E947100412C8429902B80931F3C909339
:100E4000203C80911A3C8F938091193C8F93809124
:100E5000183C8F938091173C8F938091163C8F9311
:100E60008091153C8F933F922F9280E79CE39F9354
:100E70008F930E94050368EE73E080E090E00E948B
:100E8000A8018DB79EB70A968DBF9EBF5ECFABE01F
:100E9000B0E0EDE4F7E00C94C5097C013B018A0168
:100EA000FC0116821782838181FFC8C1CE010196A1
:100EB0005C01F7019381F30193FD859193FF81918B
:100EC0003F01882309F453C1853239F493FD85919C
:100ED00093FF81913F01853229F4B70190E00E9490
:100EE0003709E7CF912C212C312CFFE1F31538F095
:100EF0008B3211F190F4803209F1833229F137FC01
:100F00003CC020ED280F2A3050F536FE20C08AE084
:100F1000989E200D1124922E06C08D3291F08033C0
:100F200071F7689430F8F30193FD859193FF8191F7
:100F30003F018111DACF21C0689431F8689432F80A
:100F4000F2CF689433F8EFCF689434F8ECCFEAE04E
:100F50002E9E200D1124222E689435F8E4CF8E3277
:100F600029F436FC04C1689436F8DDCF8C3619F4C8
:100F7000689437F8D8CF8836B1F2982F9F7D955472
:100F80009330E0F08336A1F18337C1F1833509F066
:100F900063C02801F2E04F0E511CF801C080D180DF
:100FA000692D70E036FC02C06FEF7FEFC6010E9432
:100FB00021094C01689437F882010AC00C5F1F4F69
:100FC000FFE3F98388248394912C6501E89437F832
:100FD00033FE2DC0522C8114910471F5552009F473
:100FE00068CFB70180E290E00E9437095A94F6CFAB
:100FF000F801808189830E5F1F4FE4CF2801F2E062
:101000004F0E511CF801C080D180692D70E036FC74
:1010100002C06FEF7FEFC6010E942C094C018201D4
:10102000D5CFB70180E290E00E9437092A942814B6
:10103000190409F0B0F7CECFF60137FC859137FEE1
:1010400081916F01B70190E00E94370951105A94C5
:10105000F1E08F1A9108BFCF843619F0893609F074
:1010600077C0F80137FE6BC0608171818281938106
:101070000C5F1F4FF32DFF763F2E97FF09C0909511
:101080008095709561957F4F8F4F9F4F689437F88B
:101090002AE030E0A5010E946709C82ECA188C2CEE
:1010A000432C36FE0CC0E89440F8C91440F434FEDA
:1010B00005C032FC03C0F32DFE7E4F2E892C44FE6A
:1010C00095C0FE01EC0DF11D8081803309F087C0D1
:1010D000242D297E422E842D8870582E43FC95C0E5
:1010E00040FE8FC09C2C821418F42C0C922C981863
:1010F00044FE91C0B70180E390E00E94370942FEB0
:1011000009C088E790E041FE02C088E590E0B701A1
:101110000E943709C91408F48AC0CA94D12C9FEFE1
:10112000C91AD90ACA0CDB1CF60182916F01B701FA
:1011300090E00E943709AC14BD04B1F74FCF608135
:101140007181072E000C880B990B0E5F1F4F92CFF9
:10115000D32CE894D4F82AE030E0853739F1232DF8
:10116000297FD22E8F3601F148F48835A9F0F70196
:10117000868197812B96E2E10C94DE09803749F055
:101180008837A9F7D4FE02C06894D2F820E130E095
:101190000DC06894D4F8F6CF34FE03C0822F866069
:1011A000D82E20E132E002C028E030E0F801D7FE7E
:1011B0000FC060817181828193810C5F1F4FA501F7
:1011C0000E946709C82ECA183D2CE89437F867CFEB
:1011D0006081718190E080E00E5F1F4FF0CF42FC94
:1011E00002C0839478CF8394839475CF842D8678BE
:1011F00009F471CFF6CFB70180E290E00E94370981
:1012000083948214C0F3512C73CF522C581882143B
:1012100008F46ECFF8CF842D867809F47BCF8BE26B
:1012200041FE80E247FC8DE2B70190E071CFB7014B
:1012300080E390E00E9437099A946CCF8FEF9FEF84
:1012400099CFFC010590615070400110D8F780954E
:1012500090958E0F9F1F0895FC0161507040019082
:101260000110D8F7809590958E0F9F1F08950F93CA
:101270001F93CF93DF93182F092FEB018B8181FDF3
:1012800009C01FEF0FEF812F902FDF91CF911F919A
:101290000F91089582FF14C02E813F818C819D8122
:1012A000281739073CF4E881F981CF01019688833A
:1012B000998310838E819F8101968E839F83E3CFD4
:1012C000E885F985812F0995892BA1F3DACFFA01F9
:1012D000AA27283051F1203181F1E8946F936E7F75
:1012E0006E5F7F4F8F4F9F4FAF4FB1E03ED0B4E066
:1012F0003CD0670F781F891F9A1FA11D680F791FA7
:101300008A1F911DA11D6A0F711D811D911DA11DB7
:1013100020D009F468943F912AE0269F11243019C7
:10132000305D3193DEF6CF010895462F4770405D62
:101330004193B3E00FD0C9F7F6CF462F4F70405D11
:101340004A3318F0495D31FD4052419302D0A9F76C
:10135000EACFB4E0A6959795879577956795BA9566
:10136000C9F700976105710508959B01AC010A2E2C
:1013700006945795479537952795BA95C9F7620F03
:10138000731F841F951FA01D08952F923F924F92A7
:101390005F926F927F928F929F92AF92BF92CF9205
:1013A000DF92EF92FF920F931F93CF93DF93CDB70E
:1013B000DEB7CA1BDB0BCDBFDEBF09942A88398894
:1013C00048885F846E847D848C849B84AA84B984DD
:1013D000C884DF80EE80FD800C811B81AA81B981E9
:1013E000CE0FD11DCDBFDEBFED010895A1E21A2EB3
:1013F000AA1BBB1BFD010DC0AA1FBB1FEE1FFF1FB9
:10140000A217B307E407F50720F0A21BB30BE40B08
:10141000F50B661F771F881F991F1A9469F760954F
:101420007095809590959B01AC01BD01CF01089509
:101430000E94310AA59F900DB49F900DA49F800D2E
:10144000911D11240895B7FF0C94180A0E94180AE0
:10145000821B930B0895EE0FFF1F0590F491E02D72
:101460000994A29FB001B39FC001A39F700D811D7D
:101470001124911DB29F700D811D1124911D08959D
:04148000F894FFCF0E
:101484000405060707060504030201000001020320
:101494000405010203000000000001010101010133
:1014A400010102020202020200000000102040803A
:1014B40080402010080402010102040810200204E4
:1014C4000801000000002701D40193005C01C4005E
:1014D400A200B600FC022703D000010200000000B5
:1014E400D902B402F9029D02AD025E009E020D0A09
:1014F40041636320582C592C5A3A202569092569DF
:04150400092569004C
:00000001FF
